:1000000000800020BD01000045330000FD320000EB
:10001000FD320000FD320000FD320000FD32000024
:10002000FD320000FD320000FD32000045330000CB
:1000300045330000FD3200006D4F0000715000009C
:1000400045330000453300004533000045330000D0
:1000500045330000453300004533000045330000C0
:1000600045330000453300004533000045330000B0
:1000700045330000453300004533000045330000A0
:100080004533000045330000453300004533000090
:100090004533000045330000453300004533000080
:1000A000912E00009D2E00004533000045330000D6
:1000B0004533000045330000453300004533000060
:1000C0004533000045330000453300004533000050
:1000D0004533000045330000453300004533000040
:1000E0004533000045330000453300004533000030
:1000F00045330000F9370000453300002539000082
:1001000045330000513A00004533000045330000FC
:1001100045330000453300004533000045330000FF
:1001200045330000453300004533000045330000EF
:1001300045330000453300004533000045330000DF
:1001400045330000453300004533000045330000CF
:1001500045330000453300004533000045330000BF
:1001600045330000993C0000453300004533000052
:10017000453300004533000045330000453300009F
:10018000453300004533000045330000453300008F
:10019000453300004533000045330000453300007F
:1001A000453300004533000045330000453300006F
:1001B000453300004533000045330000564B4CF2F8
:1001C000205210B51A804DF628121A8000BF00BFC9
:1001D00003F0BCF8514B4FF010621A60504A9A601D
:1001E000504ADA60504A136813F4807304D14F49BF
:1001F0000B604FF4A85313604D4B1A78110703D5C9
:100200001A7842F008021A704A4B4B492A221A7097
:100210004A4A4B4B8B4204D252F8040F43F8040B6A
:10022000F8E7484B484900228B4202D243F8042B9E
:10023000FAE74649464A002352F8230041F82300D2
:1002400001336F2BF8D1434B434A802103F8011B44
:100250009342FBD1414B3D4A1A60414B8A221A70AE
:10026000A3F5805324225A70A0221A709A7992071B
:10027000FCD59A79D406FCD43A4A937903F00C035E
:10028000082B384BF9D103221A7140225A719A79FE
:100290009006FCD5334A9179324B4906FBD5324A58
:1002A000324911600221516020221A709A7902F0BD
:1002B0000C020C2AFAD12E4B2E4A1A602E4B2F4AD2
:1002C0001A6000225A60072243F8042C2C4AC3F813
:1002D0000C2D62B603F010FA144B1B68DA0705D533
:1002E000284803F07BF9284B284A1A60284B1B78D2
:1002F0005B0609D5244C254B22689A4204D121483B
:1003000003F06CF90023236005F05CFB03F024F894
:1003100004F000FBFEE700BF0E20054030800440E3
:10032000823F04000100002B10D0034014D0034092
:1003300002D0074000E007404094FF1FE8A70000FC
:100340002087FF1F4094FF1F3C9DFF1F0082FF1F5F
:100350000000000000E400E05FE400E008ED00E0E1
:100360000050064000400640448004400000030165
:1003700004800440C010050014E000E0FF76010096
:1003800000002020F11FE3041CE00340A5C3945AA1
:1003900000F00740FFFFFFFFFFFFFFFFFFFFFFFF32
:1003A000FFFFFFFFFFFFFFFFFFFFFFFFFFFFFFFF5D
:1003B000FFFFFFFFFFFFFFFFFFFFFFFFFFFFFFFF4D
:1003C000FFFFFFFFFFFFFFFFFFFFFFFFFFFFFFFF3D
:1003D000FFFFFFFFFFFFFFFFFFFFFFFFFFFFFFFF2D
:1003E000FFFFFFFFFFFFFFFFFFFFFFFFFFFFFFFF1D
:1003F000FFFFFFFFFFFFFFFFFFFFFFFFFFFFFFFF0D
:10040000FFFFFFFFFFFFFFFFFFFFFFFFDEF9FFFF23
:1004100010B5054C237833B9044B13B10448AFF33E
:1004200000800123237010BD4094FF1F00000000D6
:10043000E4A70000084B10B51BB108490848AFF30A
:1004400000800848036803B910BD074B002BFBD0A0
:10045000BDE81040184700BF000000004494FF1F93
:10046000E4A700004094FF1F0000000010B582B018
:10047000002304688DF800308DF801308DF80230CB
:1004800024688DF804300A468DF805308DF8063062
:10049000694601ABA04702B010BD00BF406970477C
:1004A0000020704740687047037E826823B143692B
:1004B0009942ACBF0269002399420BDD5AB1013366
:1004C00099425268FAD1012341610261037612B167
:1004D00010687047F7D00020704700BF4FF4C87015
:1004E000704700BF4FF4C870704700BFF0B5857CFF
:1004F0001C785E789B7889B0012D0191029203925D
:100500008DF816408DF817608DF8183016D000233E
:100510008DF815308DF814308DF813308DF81230B9
:100520008DF811308DF810300268002392698DF833
:100530001930079301A9904709B0F0BD1B4A137801
:10054000013303F0070313F0010F137014BF80226F
:100550000022990744BF42F04002D2B25B0748BF75
:1005600042F020021032D2B20DF113030DF1160742
:100570004FF4807EACB19EFBF4F4E4B2611CC9B2CE
:1005800001FB02252D121970EEB205B1013E03F8F0
:10059000036C01B11C700133BB42C5D0DC78002C68
:1005A000E9D11C7003F8034CF5E700BF5C94FF1F12
:1005B00010B5012104460E2003F028F80222024B58
:1005C000A261E36110BD00BFC0F00F4010B5012172
:1005D0000446022003F01AF80122024BA261E361F3
:1005E00010BD00BFC0F00F4038B5044608200D46CE
:1005F00004F098F9A3680560002242604BB1E368FB
:100600005860E06063680022013363602276012055
:1006100038BDA060E060F5E710B504468068064B81
:10062000236038B14368A360082104F07DF9A06815
:100630000028F7D1204610BD30A0000043688B424F
:100640002DE9F041064635DD51B3082017460D4629
:1006500004F068F9337EB4680022013D0260426014
:1006600023B173699D42ACBF346913469D4227DDB7
:10067000E4B12A4600E0CCB10133AB426468FAD160
:10068000954213D1736862684260013300210760AC
:10069000756134616060736031760120BDE8F0817E
:1006A00003681146DB68BDE8F04118470023076086
:1006B0005B68FFDE036811469B68BDE8F0411847A0
:1006C0001A46DDE700293FDB4368994270B50446CE
:1006D00033DA69B3013B994231D0037E8268013934
:1006E00003BB994232DDD2B1084600E0BAB1013312
:1006F0008B425268FAD1814211D1506861614368DE
:1007000005682261012121765360082104F00CF96B
:1007100063680022013B28466360227670BD002397
:100720005B68FFDE43699942ACBF02690023D8E7EA
:100730000368BDE87040DB691847002070BD03689E
:10074000BDE870409B691847002070471846D2E703
:1007500000291ADB4368994217DA037E10B48468D3
:1007600023B143699942ACBF0469002399420EDD6D
:1007700074B1013399426468FAD101230461416183
:1007800003761846226010BC704700207047F4D0F2
:1007900000231A60FFDE00BF4268002A37DD70B513
:1007A000012A4FF000050646057626D0023A8468F5
:1007B0000DD04CB12B46114600E0D4B10133934229
:1007C0006468FAD18A4202D000235B68FFDE636866
:1007D0007261012218463276346108211D6804F0E6
:1007E000A3F873680022013B626028467360F460DE
:1007F00070BD19468A42E7D1E9E78068046808219C
:1008000004F092F82046B560F560756070BD002078
:10081000704700BF4368002B17DD012B70B50446FD
:100820000ED083680821184693E8600004F07CF835
:100830006368A660013B002228466360227670BD93
:100840000368BDE870409B6918470020704700BFEF
:10085000426870B5044672B108200D4604F062F893
:100860006368A1680560013300224160A060636095
:100870002276012070BD0368BDE870409B68184770
:1008800038B50A4D044606E06068002820460BDDB6
:100890002368DB69984723681B68AB42F4D0204685
:1008A000984700282046F3DC38BD00BFA5040000AF
:1008B000F0B5857C1C785E789B7889B0012D01911C
:1008C000029203928DF816408DF817608DF818305B
:1008D00017D000238DF815308DF814308DF81330B3
:1008E0008DF812308DF811308DF810300368002229
:1008F00003219B698DF81910079201A9984709B047
:10090000F0BD1B4A1378013303F0070313F0010F06
:10091000137014BF80220022990744BF42F04002A6
:10092000D2B25B0748BF42F020021032D2B20DF1C2
:1009300013030DF116074FF4807EACB19EFBF4F467
:10094000E4B2611CC9B201FB02252D121970EEB28E
:1009500005B1013E03F8036C01B11C700133BB42C9
:10096000C4D0DC78002CE9D11C7003F8034CF5E707
:100970005C94FF1F2DE9F04F8BB00446099008915D
:1009800002F04AFE238CC01A83B2312BF8D9089C9E
:100990009E4AE07B13680290207C657C0190204693
:1009A000667BD4F8008094F80C9094F80EA0039520
:1009B000A77CE57C94F814E0954994F915400494DB
:1009C00043F08073D0F804B013600A689148924BEA
:1009D00042F001020A60002202601A681A68019857
:1009E00022F002021A6098F80140861B5FFA86FC2A
:1009F000002C40F057826B1C059372B6854B19682A
:100A0000BBF1000F01F17C0140F3BB807A1C069220
:100A100081480EF1010207921F46029AC9EB0209B2
:100A2000019ACCEB020C039ACAEB020A5FFA89F92D
:100A30005FFA8CFC5FFA8AFA72B61A688A4205D9A4
:100A40001A68521AB2F5935F00F2E88005680668EA
:100A500045F0020526F002064FF0070E1A688A429A
:100A6000FCD339680560220601F17C0100F1958014
:100A70001A688A1A652AFBD86400BEF1010E066066
:100A8000E4B2EBD11A689142FCD8396805602406BB
:100A900001F17C0100F18B801A688A1A652AFBD863
:100AA000066098F800403CB184FA59F4069AE4B222
:100AB00004FB02F4C4F307244FF0070E1A689142B6
:100AC000FCD839680560220601F17C0179D41A68E6
:100AD0008A1A652AFBD86400BEF1010E0660E4B2F2
:100AE000ECD11A689142FCD839680560240601F1FE
:100AF0007C016FD41A688A1A652AFBD8066098F8B8
:100B000002403CB184FA5AF4079AE4B204FB02F4BE
:100B1000C4F307244FF0070E1A688A42FCD33968E1
:100B20000560220601F17C015DD41A688A1A652AE3
:100B3000FBD86400BEF1010E0660E4B2ECD11A6885
:100B40009142FCD839680560240601F17C0153D438
:100B50001A688A1A652AFBD8049A066090440BF139
:100B6000FF3B98F801403CB184FA5CF4059AE4B28A
:100B700002FB04F4C4F3072462B6BBF1000F7FF458
:100B80004CAF62B6234B1B68002B48D002F044FDEB
:100B9000099B18840BB0BDE8F08F1A688A1A462AA0
:100BA0007FF66AAF1A688A1A462AF6D864E71A6886
:100BB0008A1A462A7FF674AF1A688A1A462AF6D825
:100BC0006EE71A688A1A462A85D91A688A1A462A46
:100BD000F7D880E71A688A1A462A8FD91A688A1ABB
:100BE000462AF7D88AE71A688A1A462AA1D91A68C3
:100BF0008A1A462AF7D89CE71A688A1A462AABD975
:100C00001A688A1A462AF7D8A6E700BFFCED00E06A
:100C1000001000E0041000E0C0F00F4062B662B6C1
:100C20004FF4C863013BFDD172B6089FA54AF97B1A
:100C300013687E7C02913C46397C94F915E0089C4F
:100C4000A1487D7B019143F08073D7F8008097F82D
:100C50000CA097F80E900396F97CBE7CCDF810E0BE
:100C60003F7DD4F804B013600268984C984B42F072
:100C700001020260002222601A681A6822F0020251
:100C80001A60019B98F801405D1B5FFA85FC002CFF
:100C900000F0128184FA5CF4E3B24A1C02FB03F315
:100CA0000592C3F3072472B6884B1968BBF1000F95
:100CB00001F17C0140F3BA80721C069284487A1CD0
:100CC00007921F46029ACAEB020A019ACCEB020C69
:100CD000039AC9EB02095FFA8AFA5FFA8CFC5FFAA1
:100CE00089F972B61A688A4205D91A68521AB2F599
:100CF000935F00F2E4800668056846F0020625F07E
:100D000002054FF0070E1A688A42FCD33968066064
:100D1000220601F17C0100F18D801A688A1A652A89
:100D2000FBD86400BEF1010E0560E4B2EBD11A6895
:100D30009142FCD839680660240601F17C0100F17B
:100D400083801A688A1A652AFBD8056098F80040E3
:100D50003CB184FA5AF4069AE4B204FB02F4C4F3F8
:100D600007244FF0070E1A688A42FCD339680660E0
:100D7000220601F17C0171D41A688A1A652AFBD80F
:100D80006400BEF1010E0560E4B2ECD11A68914234
:100D9000FCD839680660240601F17C0167D41A6822
:100DA0008A1A652AFBD8056098F802403CB184FA9B
:100DB00059F4079AE4B204FB02F4C4F307244FF099
:100DC000070E1A688A42FCD339680660220601F1D0
:100DD0007C0155D41A688A1A652AFBD86400BEF1D2
:100DE000010E0560E4B2ECD11A689142FCD8396872
:100DF0000660220601F17C014BD41A688A1A652A22
:100E0000FBD8049A056090440BF1FF3B98F8014031
:100E10003CB184FA5CF4059AE4B202FB04F4C4F336
:100E2000072462B6BBF1000F7FF44CAF62B6274BCC
:100E30001B68ABE61A688A1A462A7FF672AF1A68F0
:100E40008A1A462AF6D86CE71A688A1A462A7FF662
:100E50007CAF1A688A1A462AF6D876E71A688A1A80
:100E6000462A8DD91A688A1A462AF7D888E71A6856
:100E70008A1A462A97D91A688A1A462AF7D892E710
:100E80001A688A1A462AA9D91A688A1A462AF7D8E5
:100E9000A4E71A688A1A462AB3D91A688A1A462A0F
:100EA000F7D8AEE784FA5CF4E3B26A1C02FB03F302
:100EB0000592C3F30724A0E54B1C0593F3E662B645
:100EC00064E600BFFCED00E0001000E0041000E06C
:100ED000C0F00F402DE9F04F8BB004460990089107
:100EE00002F09AFB238CC01A83B2312BF8D9089CEC
:100EF0009E4AE07B13680290207C657C019020462E
:100F0000667BD4F8008094F80C9094F80EA00395BA
:100F1000A77CE57C94F814E0954994F91540049475
:100F200043F08073D0F804B013600A689148924B84
:100F300042F001020A60002202601A681A680198F1
:100F400022F001021A6098F80140861B5FFA86FCC5
:100F5000002C40F057826B1C059372B6854B1968C4
:100F6000BBF1000F01F17C0140F3BB807A1C0692BB
:100F700081480EF1010207921F46029AC9EB02094D
:100F8000019ACCEB020C039ACAEB020A5FFA89F9C8
:100F90005FFA8CFC5FFA8AFA72B61A688A4205D93F
:100FA0001A68521AB2F5935F00F2E8800568066885
:100FB00045F0010526F001064FF0070E1A688A4237
:100FC000FCD339680560220601F17C0100F19580AF
:100FD0001A688A1A652AFBD86400BEF1010E066001
:100FE000E4B2EBD11A689142FCD839680560240656
:100FF00001F17C0100F18B801A688A1A652AFBD8FE
:10100000066098F800403CB184FA59F4069AE4B2BC
:1010100004FB02F4C4F307244FF0070E1A68914250
:10102000FCD839680560220601F17C0179D41A6880
:101030008A1A652AFBD86400BEF1010E0660E4B28C
:10104000ECD11A689142FCD839680560240601F198
:101050007C016FD41A688A1A652AFBD8066098F852
:1010600002403CB184FA5AF4079AE4B204FB02F459
:10107000C4F307244FF0070E1A688A42FCD339687C
:101080000560220601F17C015DD41A688A1A652A7E
:10109000FBD86400BEF1010E0660E4B2ECD11A6820
:1010A0009142FCD839680560240601F17C0153D4D3
:1010B0001A688A1A652AFBD8049A066090440BF1D4
:1010C000FF3B98F801403CB184FA5CF4059AE4B225
:1010D00002FB04F4C4F3072462B6BBF1000F7FF4F3
:1010E0004CAF62B6234B1B68002B48D002F094FA39
:1010F000099B18840BB0BDE8F08F1A688A1A462A3B
:101100007FF66AAF1A688A1A462AF6D864E71A6820
:101110008A1A462A7FF674AF1A688A1A462AF6D8BF
:101120006EE71A688A1A462A85D91A688A1A462AE0
:10113000F7D880E71A688A1A462A8FD91A688A1A55
:10114000462AF7D88AE71A688A1A462AA1D91A685D
:101150008A1A462AF7D89CE71A688A1A462AABD90F
:101160001A688A1A462AF7D8A6E700BFFCED00E005
:10117000001000E0041000E0C0F00F4062B662B65C
:101180004FF4C863013BFDD172B6089FA54AF97BB5
:1011900013687E7C02913C46397C94F915E0089CEA
:1011A000A1487D7B019143F08073D7F8008097F8C8
:1011B0000CA097F80E900396F97CBE7CCDF810E059
:1011C0003F7DD4F804B013600268984C984B42F00D
:1011D00001020260002222601A681A6822F00102ED
:1011E0001A60019B98F801405D1B5FFA85FC002C9A
:1011F00000F0128184FA5CF4E3B24A1C02FB03F3B0
:101200000592C3F3072472B6884B1968BBF1000F2F
:1012100001F17C0140F3BA80721C069284487A1C6A
:1012200007921F46029ACAEB020A019ACCEB020C03
:10123000039AC9EB02095FFA8AFA5FFA8CFC5FFA3B
:1012400089F972B61A688A4205D91A68521AB2F533
:10125000935F00F2E4800668056846F0010625F019
:1012600001054FF0070E1A688A42FCD33968066000
:10127000220601F17C0100F18D801A688A1A652A24
:10128000FBD86400BEF1010E0560E4B2EBD11A6830
:101290009142FCD839680660240601F17C0100F116
:1012A00083801A688A1A652AFBD8056098F800407E
:1012B0003CB184FA5AF4069AE4B204FB02F4C4F393
:1012C00007244FF0070E1A688A42FCD3396806607B
:1012D000220601F17C0171D41A688A1A652AFBD8AA
:1012E0006400BEF1010E0560E4B2ECD11A689142CF
:1012F000FCD839680660240601F17C0167D41A68BD
:101300008A1A652AFBD8056098F802403CB184FA35
:1013100059F4079AE4B204FB02F4C4F307244FF033
:10132000070E1A688A42FCD339680660220601F16A
:101330007C0155D41A688A1A652AFBD86400BEF16C
:10134000010E0560E4B2ECD11A689142FCD839680C
:101350000660220601F17C014BD41A688A1A652ABC
:10136000FBD8049A056090440BF1FF3B98F80140CC
:101370003CB184FA5CF4059AE4B202FB04F4C4F3D1
:10138000072462B6BBF1000F7FF44CAF62B6274B67
:101390001B68ABE61A688A1A462A7FF672AF1A688B
:1013A0008A1A462AF6D86CE71A688A1A462A7FF6FD
:1013B0007CAF1A688A1A462AF6D876E71A688A1A1B
:1013C000462A8DD91A688A1A462AF7D888E71A68F1
:1013D0008A1A462A97D91A688A1A462AF7D892E7AB
:1013E0001A688A1A462AA9D91A688A1A462AF7D880
:1013F000A4E71A688A1A462AB3D91A688A1A462AAA
:10140000F7D8AEE784FA5CF4E3B26A1C02FB03F39C
:101410000592C3F30724A0E54B1C0593F3E662B6DF
:1014200064E600BFFCED00E0001000E0041000E006
:10143000C0F00F4008B50421104803F061F9032102
:101440000F4803F0FFFA0E4803F096FA0C210D48FE
:1014500003F056F90C4B1B780B213BB90B4803F0FA
:101460004FF90748BDE8084003F086BA084803F082
:1014700047F90348BDE8084003F07EBAA0A0000089
:10148000E489FF1FA8A00000CC94FF1FC4A00000A7
:10149000B8A0000038B509211148124D03F030F909
:1014A000114803F069FA00240A34E3B219460D48E2
:1014B0002B7000F0B1FF12210A4801F00FF8642CE4
:1014C000F2D10A3CE3B2194606482B7000F0A4FFA3
:1014D0001221044801F002F8002CF2D138BD00BFFF
:1014E000D0A00000C899FF1FE489FF1F70B500233A
:1014F000254D1C46FF26286803EB430142180133A3
:10150000C82B465454709470F5D100231C46FF2616
:10151000686803EB430142180133C82B46545470EA
:101520009470F5D10424FFF7B5FF0A21174800F0A5
:10153000D5FFFFF7AFFF4FF4E171144800F0CEFF85
:10154000013CF0D1234622462C6803EB43002118CE
:101550000133C82B22544A708A70F5D100231A46F1
:101560006C6803EB430021180133C82B22544A70E6
:101570008A70F5D1054B7D221A7018461146BDE8D8
:10158000704000F049BF00BF0888FF1FC899FF1FC7
:1015900070B5132182B005460E4803F0B1F80E482D
:1015A00003F0EAF9C821002003F0A2FA06466820F9
:1015B00003F0B8F9094B009653F8251004465A2356
:1015C000C82200F059FD21460548FFF70DF802B08A
:1015D00070BD00BFDCA00000E489FF1F0888FF1F6A
:1015E000D094FF1F30B5114B11481B68114C83B0CC
:1015F0001A210193019D03F083F80F4803F0BCF911
:10160000236803F2F3139D420DDD13210B4803F011
:1016100077F8094803F0B0F902210020256003F0B3
:1016200067FAFFF7B5FF03B030BD00BF409AFF1F58
:10163000F0A00000EC94FF1FE489FF1F0CA1000044
:1016400010B513210446074803F05AF8064803F082
:1016500093F921460548FFF735F86821BDE81040A9
:1016600003F062B920A10000E489FF1FD094FF1F9E
:1016700038B5104D6B68002B1BDD002403E06B6850
:101680000134A34215DD12210B4803F039F80B4851
:1016900003F072F921460748FEF706FF00F0BCFD93
:1016A0000028ECD12046FFF7CBFF6B680134A34242
:1016B000E9DC38BDD094FF1F34A10000E489FF1F8E
:1016C000F0B50D4983B005460C4816461F4603F099
:1016D0006BF9682003F026F9094B044653F82510EE
:1016E000C8220023CDE9006700F05AFC21460548D6
:1016F000FEF77AFF03B0F0BD48A10000E489FF1FA8
:101700000888FF1FB094FF1F70B5024604460D46BF
:101710000B460020FFF7D4FF22462B460120BDE8F0
:101720007040FFF7CDBF00BF08B501460348FEF784
:10173000C9FF6821BDE8084003F0F6B8B094FF1F68
:1017400038B50D4D6B68002B14DD002403E06B6889
:101750000134A3420EDD21460748FEF7A5FE00F046
:101760003DFD0028F3D12046FFF7DEFF6B68013412
:10177000A342F0DC38BD00BFB094FF1F38B5144D54
:101780006B68002B22DD002403E06B680134A34268
:101790001CDD12210F4802F0B3FF0F4803F0ECF8F4
:1017A00021460B48FEF780FE00F0A0FD0028ECD19A
:1017B00010210A4802F0A4FF074803F0DDF8204694
:1017C000FFF7B2FF6B680134A342E2DC38BD00BF13
:1017D000B094FF1F70A10000E489FF1F84A10000E6
:1017E0002DE9F041324F3B7882B0032B18D8DFE867
:1017F00003F04802431A2F4B5B68002B38D02E4C65
:1018000028222068C82100F0B3FD6068C821282282
:1018100000F0AEFDFFF794FF2848017800F0FCFDD2
:1018200002B0BDE8F081264E33680093009D336816
:101830000193019B05F5FA559D421FD91E4CDFF817
:101840007C8020681E22C82100F092FD1E22C82143
:10185000606800F08DFDFFF791FF98F800101748C1
:1018600000F0DAFD33680193019BAB42E9D3012319
:101870003B7002B0BDE8F081FFF738FE01233B70FA
:10188000F7E70D4C28222068C82100F071FD606840
:101890002822C82100F06CFDFFF7A4FEFFF7E8FE48
:1018A0000648017800F0B8FD02B0BDE8F08100BF45
:1018B0005097FF1FB094FF1F0888FF1FC899FF1F94
:1018C000409AFF1F38B5204B1868036803215B68F6
:1018D0009847013804280CD8DFE800F02D20030CCD
:1018E0001C001A4A1A491378D1E90001EBB1012B07
:1018F0001DD038BD174B5D68002DC8BF002405DD25
:1019000001340020FFF710FFA542F9D10F4B02224E
:101910001A7038BD0D4B03221A7038BD0B4A0E49A0
:101920001378D1E90001002BE1D101231370BDE848
:101930003840FFF7E9BE054A08491378D1E90001AC
:10194000002BD4D1F1E700BFB099FF1F5097FF1FC4
:101950001888FF1FB094FF1F1088FF1F0088FF1F0B
:1019600070B52C4C86B023680193019B23B9236882
:101970000293029B012B1FD9274D284E284600F0C9
:10198000A1FE3268264990420346086027D39A1A7E
:10199000F92A11D94FF4FA712846336000F09CFE01
:1019A0000121284600F00AFFD8B91B48052100F0A4
:1019B00077FE194800F0F8FE1A4D164EFFF782FF29
:1019C000236804932B68049A18339A4205DDFFF7C5
:1019D00007FF33680593059B2B6006B070BD33602D
:1019E000EAE72846012100F089FE686C0E49036889
:1019F00001225B689847236803930399686C00236E
:101A00000A2202F0DFFF284600F0BEFE284600F062
:101A1000F9FECAE7409AFF1FEC99FF1FF494FF1FDD
:101A2000F094FF1FAC99FF1F98A10000F8B5104B70
:101A3000104F114E114D1D6000243A463146184694
:101A40009C60DC605C601C615C611C7603F0A8FF3C
:101A50000B4B3A46314618461D609C60DC605C606A
:101A60001C615C611C76BDE8F84003F099BF00BFC3
:101A7000B094FF1FFC87FF1F1906000030A0000074
:101A8000D094FF1FF0B57D4C83B040F6B8312046AE
:101A900000F0E0FE20467A494FF4165200F0B4FE02
:101AA0002046012100F08AFE002840F0D480012267
:101AB0007248744D002100F095FF7348734A036823
:101AC0002F68012613EA060416707CD039460023DD
:101AD000C8226F4800F04EFC6E4A69681368F02413
:101AE000B027FF26847313F001044773067300F0D8
:101AF0008C800023C8226848684C00F03BFCB02270
:101B0000F023FF21427383730173002001F078FBFF
:101B100002F0E8FF01210D2001F078FD01210D20E8
:101B200001F06EFD5E48002161600B460A46A1602F
:101B3000E16021616161217641608160C160016184
:101B4000416101762C6803EB430021180133C82B57
:101B500022544A708A70F5D100231A466C6803EB50
:101B6000430021180133C82B22544FF000044A705F
:101B70008A70F3D14B4D7D2319462B70284600F017
:101B80004BFC082002F0CEFE0321064600F09EF931
:101B9000454B30461E6000F0EFF8444A444B0121AB
:101BA0004FF4FA7011701C6001F058FDFFF742FC11
:101BB0002846297800F030FC40F6C41003B0BDE898
:101BC000F04001F04BBD01F0DFFB00283FF47EAF99
:101BD00038492F4B08685C60FF229E745C619C60F2
:101BE0001A735A739A73DA731A745A74002842D0AB
:101BF000314A116801B18B600024304922481C84AD
:101C00001360196001F0C6FB60E71046019101F016
:101C1000BBFB019900283FF46CAF264A1E4B1068AD
:101C20005C6001271E735E739E73DE731E745E74A8
:101C30005C619C609F74E0B11F4A106800B18360D2
:101C400000261F4C13481E84019113601C6001F094
:101C5000A1FB01994DE7606C1A49036811225B688A
:101C6000984720460A2100F01BFD204600F0CAFDDF
:101C70001DE71360E0E70B60BAE700BFEC99FF1FB8
:101C8000E489FF1F0888FF1F8894FF1FCC94FF1F63
:101C90008C94FF1F6094FF1F6494FF1FB094FF1F7C
:101CA000D094FF1FC899FF1FB099FF1F5097FF1FC7
:101CB000EC94FF1FD899FF1FE899FF1F60A0000058
:101CC00084A000009CA1000038B5074915460446D1
:101CD00002F058FF2946204602F0D0FF204640215E
:101CE00002F0D0FF204638BDB0A1000038B508464C
:101CF0000C461A4902F0E6FF30B10125204618498A
:101D000002F07AFF284638BD1649204602F0DAFF75
:101D100030B102252046124902F06EFF284638BD38
:101D20001149204602F0CEFF08B10325E6E70F492E
:101D3000204602F0C7FF08B10425DFE70C49204622
:101D400002F0C0FF08B10525D8E70A49204602F095
:101D5000B9FF00280CBF00250625CFE7B4A100007D
:101D600070A20000BCA10000C4A10000CCA1000032
:101D7000D4A10000E0A1000010B5044C0179204678
:101D800000F000FF024BA36610BD00BF2088FF1FBC
:101D9000FD1D000030B5144D2B7885B01BB91C46D5
:101DA000204605B030BD04461B21104802F0A8FCB7
:101DB0000F49104802F0BAFD0E4802F0DDFD6846FA
:101DC0000B4902F0F3FE69462046FFF78FFF0446F9
:101DD000684602F097FE0023074905482B7002F081
:101DE0000BFF204605B030BDC499FF1FE8A10000DD
:101DF000B499FF1FE489FF1F70A200002DE9F04194
:101E000088B02C492C4E2D4F684602F0BBFE16219F
:101E10002B4802F075FC2B4802F0AEFD96F83920F5
:101E200035464FF0000896F83830D11A002905EBF6
:101E3000030403F1010036DD934226D2247E85F8A7
:101E40003800232C26D0402C14D0B8F1000FEAD053
:101E5000694604A802F0AAFE214604A802F022FF67
:101E60000146684602F0C0FE04A802F04BFE96F858
:101E70003920D8E76946144802F0B6FE01233B70CA
:101E800095F839204FF00008CDE7FF24B8F1000F96
:101E9000C9D0DDE70749684602F0AEFE4FF0010801
:101EA00095F83920BFE7684602F02CFE08B0BDE87F
:101EB000F08100BF70A200002088FF1FC499FF1F9F
:101EC00004A20000E489FF1FB499FF1F10B50A4B5C
:101ED0004160044603600949094802F08DFE094B40
:101EE0000948002208211A7002F00AFC074802F093
:101EF00043FD204610BD00BF30A2000070A20000CC
:101F0000B499FF1FC499FF1F1CA20000E489FF1FA2
:101F100010B5064C0021204602F034FE2046044A4B
:101F20000449BDE8104003F03BBD00BFB499FF1F5A
:101F3000FC87FF1F054B000070B58CB004460E46B1
:101F400004A8114602F032FE214604AA6846FFF7B3
:101F5000BBFE04A802F0D6FD104C0023012504A905
:101F60006846202202F0C4FEAE4004A884F83B601C
:101F700084F85E5084F85D5004F0C2FC04A9024667
:101F8000204600F083FD2946204600F0E7FE684623
:101F900002F0B8FD00200CB070BD00BF2088FF1F0C
:101FA000F8B50446304DE16396272878A7634FF4CF
:101FB000FA662E4F22604FF0140C05224FF01E0ED1
:101FC000002563606FF04F01282326650026C4F8C2
:101FD00030C0C4F834E02566A164C4E91067A2608B
:101FE000E264A362E362C0B9214B0022C4E9042386
:101FF000DDE906230321E1601046194603F046F8A7
:1020000013A3D3E90023C4E90601DDE9060103F0C7
:10201000EFF9C4E908012046F8BD0FA1D1E900019C
:102020000123C4E90401E3600022124BDDE906014B
:1020300003F0DEF90AA3D3E90023C4E90601DDE9D0
:10204000060103F0D5F9C4E908012046F8BD00BF38
:10205000000000C0CCCCF43F000000A09999D93F0B
:10206000000000C0CCCC0440CC94FF1F000054C042
:102070000000084000001040F0B5044683B0E16362
:102080000898226063600522282314271E269625BF
:102090004FF4FA61A563A260E264A362E36227637E
:1020A00066632165A06403F03DF9074B1B6801934B
:1020B000019D064B25660022C4E910012046C4E9B3
:1020C000162303B0F0BD00BF409AFF1F0000F03F91
:1020D0002DE9F04FD51A002D9A4683B080460C4664
:1020E000D8BF002337DD0F4601EB410900264FF032
:1020F000FF0B002F27DBD8F800309F42F0B222DA26
:10210000320644BFC043C0B2400000F0FE0003F0FE
:1021100009F9D8E9062303F06BF92F4B002202F0EE
:10212000B5FF03F015FC031E01A80CDDD8F83C1028
:10213000D8F804208DF805B049448DF806308DF8A4
:10214000042000F0F1F90136B54207F1010709F169
:102150000309CED12B46BAF1000F39DB671CBA4414
:102160001C440AEB030704EB44064FF0FF09002C64
:1021700027DBD8F800309C42E8B222DA2B0644BFB5
:10218000C043C0B2400000F0FE0003F0CBF8D8E935
:10219000082303F02DF9104B002202F077FF03F023
:1021A000D7FB031E01A80CDDD8F83C10D8F804209A
:1021B0008DF8059031448DF806308DF8042000F03C
:1021C000B3F90134A742A5F1020506F10306CED109
:1021D00003B0BDE8F08F00BF00003440816C02689E
:1021E000914238B502DB0023184638BDC56A036B3F
:1021F000826A04462944FFF76BFFE06803F092F817
:10220000D4E9102302F042FFC4E9100103F0A0FB5F
:102210000123A064184638BDF0B5044683B01421EC
:102220002D4802F06DFAA26C23689A4244DA12211A
:102230002A4802F065FA2A4802F09EFB294B216EDB
:102240001B680193236D019A0B449A4230DAE16CCA
:1022500000291EDD0025FF2601E0A94219DDA36C3F
:1022600022682B44934205F10105F6DAE16B94F8FC
:10227000387062688DF8016003EB430319446846C7
:102280008DF802708DF8002000F04EF9E16CA94243
:10229000E5DCD4E91623D4E9100102F0F7FEC4E925
:1022A000100103F055FB0123A064184603B0F0BDF4
:1022B0000023184603B0F0BD0E210B4802F020FAAF
:1022C000A16C074802F0BEFB054802F055FB002355
:1022D000184603B0F0BD00BF5CA2000084A200005D
:1022E000E489FF1F409AFF1F74A20000826AC16A3E
:1022F00038B5856C54186442A54202DC00231846A8
:1023000038BD04462944036BFFF7E2FED4E90423F9
:10231000D4E9100102F0B8FEC4E9100103F018FB83
:102320000123A064184638BD09B330B44D1EADB2C8
:10233000D2430135D2B205EB450505440132441CB8
:1023400014F8013C02FB03F31B1204F8013C417832
:10235000837802FB01F102FB03F309121B124170A7
:1023600083700330854204F10304E9D130BC704727
:10237000FFF7DABFF8B51E1E03680446CCBF02EBB8
:10238000420500250F469B68D8BF164698477A1924
:10239000236862605B690A4A6661934201D1204604
:1023A000F8BD204698470028F9D0064A064B5168E8
:1023B00093FBF0F0884238BF084650602046F8BDD5
:1023C000A1040000C899FF1F40420F0070B40F4CD9
:1023D0002268531C8A4283B0236013DB0C4D0D4AE4
:1023E0002968019101992D6800951668009D156076
:1023F0004FF47A720025891B02FB03F32560B3FBBF
:10240000F1F3438003B070BC704700BFDC99FF1F3D
:10241000409AFF1FE499FF1F2DE9F04F43682D4CB0
:1024200083B006468946002B4BD101F0F5F8F368DE
:1024300020601BB14846B16898478146264B1C680E
:102440000025002C36D07388A77C61686269632BF5
:10245000236898BFA574D3F804808DF804508DF8D4
:1024600005508DF80650B9F1000F1CD004F10B0394
:102470000DF1040E04F10E0C13F801BFBBF1000FB7
:102480000DD093F803A00AF101000BFB0000BAF194
:10249000000F04D009FB00F0000C8EF8000063452B
:1024A0000EF1010EE8D1204601ABC047A774A46825
:1024B000002CC8D130461921FFF788FF03B0BDE8D2
:1024C000F08F01F0A9F822687368801A9842AAD3A5
:1024D000ABE700BFE099FF1FD899FF1FF0B50A4D89
:1024E00083B02B680093009F04460E462178204657
:1024F000FFF792FF02F016FC2B680193019BDB1B98
:10250000B342F3D303B0F0BD409AFF1F00207047E1
:10251000044B0022FF204FF0FF31187099605A8061
:10252000DA607047C899FF1FF0B404784678827863
:10253000E00000F0F80000EB800303EB031303441A
:102540002506C3F307235FD404F0400505F0FF0719
:1025500004F02004002D46D104F0FF00002C6CD0C4
:102560005533DDB2AB243B46FF2E1CD0002E79D074
:102570001CB106FB0444C4F307241DB106FB05553A
:10258000C5F307251BB106FB0333C3F30723F04351
:10259000C0B200FB0000C0F307200444054403441C
:1025A000E4B2EDB2DBB2FF2A18D012FB02F0003227
:1025B00018BF012202EB102212F0FF0256D01CB10C
:1025C00002FB0444C4F307241DB102FB0555C5F307
:1025D00007251BB102FB0333C3F307230C704D70B7
:1025E0008B70F0BC704704F0FF075CBB00EBC004CD
:1025F00000EB440000EBC0000412563BC4F1AB04F6
:10260000DDB2E4B23B46AFE704F0400707F0FF0558
:10261000E7B904F0200707F0FF04002F36D100EBE4
:10262000C00300EB430000EBC000C0F30720C0F183
:10263000AB055530EDB2C3B296E7DC43E4B21D46BC
:10264000034691E70024DD43EDB28DE704F020045A
:1026500004F0FF0594B903F15504E4B2C3F1AB03F0
:10266000DBB281E7FF231D461C469CE71546144656
:1026700013460C704D708B70F0BC7047A3F156047C
:10268000E4B20025C3F15503DBB26DE7D8431C4625
:10269000C3B269E701F0CEBF01F0F0BF02F006B8A7
:1026A000074882B003680193019A114401E09942FE
:1026B00004D303680093009B9A42F8D902B0704794
:1026C000409AFF1F034B82B01B680193019802B030
:1026D000704700BF409AFF1F10B4074B82681B6809
:1026E000016183B000240193019B4461C260836057
:1026F00003B010BC704700BF409AFF1FF0B51E4BDF
:102700001E4D1A680446406C83B0036801920F4660
:102710005B681B49019E062298473946606C00237E
:102720000A2202F04FF9606C1649036803225B68C5
:1027300098473146606C00230A2202F043F9606C2E
:10274000036829465B6801229847A168606C711A8A
:1027500000230A2202F036F9606C036829465B68A0
:1027600001229847E368A168606CC91A0A22002315
:1027700002F028F903B0F0BD409AFF1FA4A20000A8
:1027800098A20000A0A2000010B5446C054923687F
:1027900020465B68062298472046BDE8104002F0BC
:1027A000EBB800BFA8A20000034B82B01B680193E6
:1027B000019B836002B07047409AFF1F10B4104A1B
:1027C00085B0A1B9136800934168009B591A31295B
:1027D0000DD813680293029C04F13203591A01E0E8
:1027E000994204D313680193019B9C42F8D9136862
:1027F0000393039B4360012005B010BC704700BFEA
:10280000409AFF1F704700BF2DE9F0410D4D0E4E5D
:10281000DFF83C800D4F41641B2401E000F01EFFF7
:102820002B78C82043B133789B0705D0D8F8003007
:102830003A689B1A182B03D8013CEFD1BDE8F08110
:10284000BDE8F081B09CFF1FC89CFF1F349DFF1F97
:10285000409AFF1F00238364436071B1074882B030
:1028600003680193019A114401E0994204D303687B
:102870000093009B9A42F8D902B07047409AFF1F1C
:1028800070B5144C84B00546406C2368039303680C
:10289000039A6A600E465B680F49062298473146E4
:1028A00000230A22686C02F08DF8686C0B490368FB
:1028B00008225B68984723680293029A02F132016A
:1028C00001E0994204D323680193019B9A42F8D90D
:1028D00004B070BD409AFF1FB0A20000B8A2000073
:1028E000F8B5037E0BB96320F8BD0446406C3B4E3F
:1028F00003681B69B3420D466AD101F0D7FE10F0A0
:10290000FF0F01D16520F8BD354F606C03681B696E
:10291000B3425FD101F0CAFE10F0FF0FF2D0606C3D
:1029200003685B69BB4257D101F084FEC3B2A3F1D7
:1029300058021E2AE9D801A151F822F0C929000045
:102940000B2900000B2900000B2900000B290000B7
:102950000B2900000B2900000B2900000B290000A7
:102960000B2900000B290000BD2900000B290000E5
:102970000B2900000B2900000B290000E7280000AC
:102980000B2900000B2900000B2900000B29000077
:102990000B2900000B2900000B2900000B29000067
:1029A000E72800000B2900000B2900000B2900007C
:1029B0000B290000B92900001846F8BD2046294619
:1029C000FFF75EFF6320F8BD002323766320F8BD88
:1029D000984794E798479FE79847A7E79D26000008
:1029E0009526000070B5054682B01646C9B1012390
:1029F0000D4C037600212846FFF772FF632810D0A4
:102A000023680193019A511C23680093009B9A420A
:102A1000F0D89942F8D200212846FFF761FF6328D9
:102A2000EED12E7602B070BD409AFF1F034B0022FC
:102A30009A60DA601A615A61704700BFEC99FF1F13
:102A40000020704790F8392090F83800101A70472D
:102A500090F8383090F839209A4205D95A1C03442E
:102A600080F83820187E70474FF0FF30704700BF65
:102A700090F8383090F839209A4286BF1B18187E9B
:102A80004FF0FF30704700BF704700BF38B50546B4
:102A9000B0F85E0090B195F85D301446C3F12102A4
:102AA00094420CD805F13B001844224600F0FCF992
:102AB00095F85D30234485F85D30204638BD01200F
:102AC00014462871EEE700BFB0F85E306BB190F8A5
:102AD0005D30202B07D8C218013380F85D3001200B
:102AE00082F83B107047012303710020704700BF3C
:102AF0000023426980F8383080F8393080F85C3043
:102B000080F85D3080F85E3080F85F3006CA30B4FF
:102B10000D68046943662A4383660A60A3704269AC
:102B200090F861301649146813441D7A5B7B01EB01
:102B3000C5051B026D6803F4E06343F064032B607A
:102B400090F8623013449D7CDB7D01EBC5011B02D4
:102B5000496803F4E06343F064030B602168536841
:102B6000194205D0036927225A70036904229A7119
:102B7000036920225A71036980229A7030BC704721
:102B80009CA3000038B50C46FFF7B2FF6400036950
:102B9000E4B21C7003690122C02180F85F209970A3
:102BA0004369197F4B119B0003F1604301F01F0142
:102BB00003F561438A401A6038BD00BF10B5026951
:102BC000D378DBB2D90604463DD510215806D17022
:102BD00038D503F0040303F0FF02002B51D03D4928
:102BE000626E00230B7084F85D30002A5BD0904742
:102BF00094F85D30002B56D02369D0229A70236957
:102C000094F83B201A712369012284F85C20022287
:102C1000DA7010BD304B84F860009C424AD02F4BD4
:102C20009C4252D094F8391013791F29DBB207D88F
:102C30002848007820B16018013184F839100376F3
:102C40000223D37010BD5906C3D4917801F010014E
:102C500001F0FF000029DDD013F001031ED194F82C
:102C60005C1094F85D00884281BF4B1C091984F800
:102C70005C3091F83B3013712369D0229A7022693D
:102C8000DEE7236984F83920C0229A702369114A4B
:102C90001979012111700222DA7010BDC0239370DE
:102CA00022691379CCE70122002384F85D2084F89F
:102CB0003B30A1E7626994F861300949134403226B
:102CC000187A00F0CBFB2269ACE7626994F86130B6
:102CD0000449F3E7389AFF1F2088FF1F8C88FF1FE5
:102CE000452D0000512D00000369DB7803F020031F
:102CF00073B190F860300133DBB2012B80F86030A3
:102D00001AD9426990F861301344187A00F022BC55
:102D100070B5426903F0FF0590F861301344044632
:102D2000187A00F017FCA36E5BB184F8385094F861
:102D30003900BDE87040184790F85F30002BE0D0B4
:102D4000704770BD0148FFF7CFBF00BF2088FF1F4D
:102D50000148FFF7C9BF00BF8C88FF1FF0B50369AA
:102D60001222DA70026993780546980687B051D529
:102D7000B423464C937023680293029E2A6905E0AF
:102D800023680393039B9B1B042B5AD8D37803F02F
:102D9000200303F0FF00002BF2D095F85D30002BEC
:102DA00031D04FF0000E4FF0020C05EB0E0393F8FC
:102DB0003B30137123680493049F286907E09B0646
:102DC0000DD523680593059BDB1B052B40D8C378E5
:102DD000DBB203F0020202F0FF06002AEFD080F817
:102DE00003C02E69F378DBB2DF0632463FD49F067C
:102DF0003DD5DB0743D40EF1010E95F85D305FFA47
:102E00008EFE7345D1D80020002934D1002385F8E7
:102E10005E301BE01D4C23680093009E05E0236894
:102E20000193019B9B1B0F2B19D8D37803F0200330
:102E300003F0FF00002BF2D1B02385F85F00937000
:102E400099E790702B6980229A70042007B0F0BD3A
:102E500086702B69802204209A7007B0F0BD002391
:102E600093702B69802204209A7007B0F0BD8023F4
:102E7000B3700420C8E72E698023B370C6E7BEF1A3
:102E8000000F0CBF02200320F6E700BF409AFF1F8F
:102E90000148FFF793BE00BF2088FF1F0148FFF7DE
:102EA0008DBE00BF8C88FF1F844641EA000313F0EB
:102EB00003036DD1403A41D351F8043B40F8043B41
:102EC00051F8043B40F8043B51F8043B40F8043B04
:102ED00051F8043B40F8043B51F8043B40F8043BF4
:102EE00051F8043B40F8043B51F8043B40F8043BE4
:102EF00051F8043B40F8043B51F8043B40F8043BD4
:102F000051F8043B40F8043B51F8043B40F8043BC3
:102F100051F8043B40F8043B51F8043B40F8043BB3
:102F200051F8043B40F8043B51F8043B40F8043BA3
:102F300051F8043B40F8043B403ABDD2303211D343
:102F400051F8043B40F8043B51F8043B40F8043B83
:102F500051F8043B40F8043B51F8043B40F8043B73
:102F6000103AEDD20C3205D351F8043B40F8043B43
:102F7000043AF9D2043208D0D2071CBF11F8013B41
:102F800000F8013B01D30B8803806046704700BF07
:102F9000082A13D38B078DD010F003038AD0C3F116
:102FA0000403D21ADB071CBF11F8013B00F8013BF8
:102FB00080D331F8023B20F8023B7BE7043AD9D3B7
:102FC000013A11F8013B00F8013BF9D20B7803708C
:102FD0004B7843708B78837060467047374A384926
:102FE00013681B06FCD40B6813F08003F8D172B68B
:102FF00034490A78002A5FD0334A3448F0B4344C5C
:10300000176806682568D4680C303E44143200689E
:103010001268304F35442C4420440244C2F34E021F
:103020002D4E2E482E4D2F4C42F400423A60376808
:1030300006682D682C4A24680C303E4400681268EB
:103040002A4F35442C4420440244C2F34E02284EF9
:103050002848294D294C42F400423A6037680668F6
:103060002D68274A24680C303E4400681268254FBA
:1030700035442C4420440244C2F34E02224E2348DD
:10308000234D244C42F400423A60376806682D68AC
:10309000214A24680C303E440068126835442C44B0
:1030A00020440244C2F34E021C4842F40042026033
:1030B0000B7062B6F0BC704762B6704724B0034034
:1030C00024B00B403A9AFF1F38B003403CB0034095
:1030D00040B003402CB0034058B003405CB0034004
:1030E00060B0034064B003406CB0034030B00340B4
:1030F00038B00B403CB00B4040B00B4044B00B40EC
:103100004CB00B402CB00B4058B00B405CB00B40A7
:1031100060B00B4064B00B406CB00B4030B00B4063
:1031200030B42948294A2A4B2A4D6024E1210470F1
:1031300011701B78284C082B30D00A2B27482849BF
:1031400037D00C2B0CBF35223D2212232A6023607E
:1031500002600B60234B24491B78244ABBB1012336
:103160000B601360224B23491B78234A012B26D97D
:10317000042B0FD9082B1ED9102B94BF862387232D
:103180000B6013601D4B01221A7030BC70470B603E
:103190001360E7E784230B601360F3E700F58E20EC
:1031A0000F490830012213232A60236002600B605C
:1031B000D0E73922F7E785230B601360E2E780232D
:1031C0000B601360DEE700BF00400740014007408E
:1031D000F888FF1F08B003400CB0034008B00B4054
:1031E0000CB00B403D9AFF1F20B0034020B00B40B5
:1031F000F988FF1F24B0034024B00B403A9AFF1F08
:1032000028282FD8334B2DE9F0411E5CFF2E2BD000
:10321000314B1B78002B2AD132062CD472B62F4D9D
:103220002F4C2F46012326602B7062B672B623689E
:103230001B060CD43B781BB9F4E72B78002BF1D09C
:1032400062B601F06FFD72B623681806F5D5254BFE
:103250001B6800222A7062B6234A107843FA00F0F5
:10326000BDE8F081002070470020BDE8F081FFF745
:10327000B5FE3206D2D572B61C4DDFF87C801C4CF0
:1032800006F04007FFB206F03F06D8F80030DFB185
:1032900023F01003C8F8003001232660134A2B7076
:1032A00062B672B6236819060CD413781BB9ECE722
:1032B0002B78002BE9D062B601F034FD72B623689A
:1032C0001B06F5D50B4BC3E743F01003C8F80030DD
:1032D000E2E700BF70A300003A9AFF1F3C9AFF1F6D
:1032E00000B0034010B00340399AFF1F3B9AFF1F04
:1032F00000B00B4010B00B400CB00B4008B5104CA8
:1033000008E0236859050DD423681A050FD42368F3
:10331000DB0411D423685803F3D500F0BDFC236807
:103320005905F1D500F068FA23681A05EFD500F0C9
:10333000F9FA2368DB04EDD500F08AFBEAE700BF69
:103340003480044008B5FFF7D9FF00BF014B1022BD
:103350001A80704700200540704700BF094908B532
:103360000B6830B16A461844A2F58052904202D2EE
:103370000860184608BD02F01FFB0C2303604FF0E5
:10338000FF3008BDFC88FF1F0078B0FA80F04009CC
:10339000704700BF01230370704700BF704700BF34
:1033A00010B40F4B53F8302092F880422CB1012317
:1033B00069B182F8803010BC704703EBC0035B68D2
:1033C0001A6841B922F002021A6010BC704782F8F4
:1033D000003110BC704742F003021A6010BC704705
:1033E0009CA300001C4A02EBC00301295B6811D0BA
:1033F00004291BD052F83000002280F8802229B125
:10340000022920D0032922D01A6070474FF480721D
:103410001A60704752F830004FF4A27280F88012A0
:103420001A601A6822F020021A60704752F83010B1
:103430004FF4A272012081F880021A601A6842F0EB
:1034400020021A60704740F203121A6070474FF46E
:1034500081721A60704700BF9CA30000212817D812
:10346000F8B5042A13D8DFE802F0494C4F1446009F
:103470002C4872B6236823F4702343F08072C4F39F
:1034800084011643236040F82150266062B6F8BDDF
:1034900070474FF41026244B03EBC0030D465C68C5
:1034A000216811F4E06134D0204B214A2149C3F84E
:1034B0009C2104F140422048C3F8A411A2F59221B6
:1034C0001E4FC3F8A0017C291D48C3F8A871C3F89A
:1034D000AC01CDD9A2F594237C2B18D9A2F5962363
:1034E0007C2B19D9A2F598237C2B17D9A2F59A2207
:1034F0007C2A15D9F8BD4FF43026CCE74FF40026CE
:10350000C9E74FF44026C6E74FF42026C3E70D482D
:10351000AFE7FFF767FFC7E70B48AAE70B48A8E745
:103520000B48A6E70089FF1F9CA300000082FF1F35
:10353000D187FF1F7987FF1FA587FF1F4D87FF1FBB
:103540002187FF1F3889FF1F8889FF1FB889FF1F48
:10355000D889FF1F1A4B03EBC00010B4426802F178
:103560004043A3F592217C2905D9A3F594217C2918
:1035700013D8144900E0144972B61368134C23F0B1
:103580008773C2F3840023F4803343F080731360A5
:1035900041F8204062B610BC7047A3F596217C2903
:1035A00009D9A3F598217C2907D9A3F59A237C2B67
:1035B000F1D80749E0E70749DEE70749DCE700BF44
:1035C0009CA300003889FF1F0089FF1F9D33000066
:1035D000D889FF1F8889FF1FB889FF1F30B4054BAA
:1035E000054D064C002210211A602A6020601960E7
:1035F00030BC704714D0034004D0034000D00340D7
:10360000212801D8FFF7CCBE704700BF212801D880
:10361000FFF7E8BE704700BF72B60C490C4B0D4A6D
:103620001B680868126862B6520102D5322B88BF47
:1036300001300949C3F5BB334FF47A72FF33A1FB64
:10364000031302FB00F000EB93107047409AFF1F3A
:1036500018E000E004ED00E0ABAAAAAA2DE9F843C7
:10366000054672B6204F214B214A1B683C68126800
:1036700062B6520102D5322B88BF013495B3C3F52F
:10368000BB331C4EDFF86490DFF86480FF334FF4E7
:103690007A72A6FB031302FB04F404EB931472B6D4
:1036A000D9F800103A68D8F800E062B6C1F5BB332B
:1036B000FF33A6FB03031EF0806FC4EB93134FF49C
:1036C0007A7002D0322988BF013200FB0233B3F591
:1036D0007A7F04D3013D05D004F57A74DFE701F069
:1036E00021FBDCE7BDE8F883409AFF1F18E000E00B
:1036F00004ED00E0ABAAAAAAF8B52D4B2D49DFF8DE
:10370000D0E0DFF8D0C02C4E2C4D2D4C2D4A2E4F42
:103710004FF4000018604FF0807018604FF0007098
:1037200018604FF0806018604FF000601860002053
:10373000086028234BF6FF71CCF80010CEF800305B
:10374000336013602B6023603B60B3629362092295
:1037500045F8242CC4F8D80F05F57F65C7F8D41FA9
:1037600007F5FF2707F5FA67C6F8F83F2B6006F55F
:10377000FF26C4F8D42F05F5FD2504F5FF24386095
:1037800006F2F4761148316005F5FF6504F5FD6435
:103790002B6023600260FFF7C3FC3220FFF75EFF5F
:1037A00000F0A6FE4FF4AF70BDE8F840FFF756BF3B
:1037B00008E100E0048003401480034024800340BB
:1037C0002C8003401C8003403480034000800B4069
:1037D0000C80034008800340054A064B10781B7894
:1037E000C0B2DBB2984238BF4030C01A704700BF49
:1037F000489AFF1F499AFF1FF0B4384B1A7912F00C
:10380000300F2CD072B6997D01F0FF0200293DD017
:1038100062B6334F334938780D78334E1C46C0B208
:10382000EDB2431C402BE17928BF0023AB4202F1EB
:10383000FF32C9B21CBFF154184612F0FF02F0D19A
:103840002A4B1B68C2B23A704BB1A84236BFC5F1D1
:103850004005401B40192728C4BF01221A701F4988
:10386000CA78D2B2150616D452060DD51B4B1B7959
:103870005B0609D51E4B1F491B6800220A7003B165
:103880001A70164B3C22DA70F0BC70474022D9798E
:103890005A7462B6E3E70B791C06E5D5164B174E52
:1038A0001C783378E4B2DBB29C420ED0144D01E0B8
:1038B000A3420AD00133402B28BF00230879E85CDB
:1038C000C0B2C871087D0728F2D9DBB20349337052
:1038D0000B79180644BF7C23CB70C5E700A00640D7
:1038E000489AFF1F499AFF1F8C9AFF1F449AFF1F97
:1038F000D09AFF1FCC9AFF1FD49AFF1FCD9AFF1FAB
:103900004C9AFF1F054A064B10781B78C0B2DBB2F9
:10391000984238BF4030C01A704700BF489BFF1F15
:10392000DD9AFF1FF0B4384B1A7912F0300F2CD00B
:1039300072B6997D01F0FF0200293DD062B6334F87
:10394000334938780D78334E1C46C0B2EDB2431C73
:10395000402BE17928BF0023AB4202F1FF32C9B20C
:103960001CBFF154184612F0FF02F0D12A4B1B681D
:10397000C2B23A704BB1A84236BFC5F14005401BF8
:1039800040192728C4BF01221A701F49CA78D2B231
:10399000150616D452060DD51B4B1B795B0609D5AF
:1039A0001E4B1F491B6800220A7003B11A70164B88
:1039B0003C22DA70F0BC70474022D9795A7462B662
:1039C000E3E70B791C06E5D5164B174E1C783378C8
:1039D000E4B2DBB29C420ED0144D01E0A3420AD007
:1039E0000133282B28BF00230879E85CC0B2C871D6
:1039F000087D0728F2D9DBB2034933700B7918062A
:103A000044BF7C23CB70C5E700B00640489BFF1F36
:103A1000DD9AFF1F089BFF1FD89AFF1F4C9BFF1FBB
:103A2000DC9AFF1F509BFF1F499BFF1FE09AFF1F5F
:103A3000054A064B10781B78C0B2DBB2984238BFFB
:103A40004030C01A704700BF589BFF1F599BFF1F93
:103A500030B42B4B1A7994061FD52A48DA790378AB
:103A6000294901333F2B0978C8BF00238B42D2B2CA
:103A700003D0264CD9B2E2540170254A116861B1D5
:103A8000244A1278D2B2934236BFC2F140029B1A46
:103A90009B18272BC4BF01230B70194AD378DBB2C4
:103AA000180611D45A060DD5154B1B795B0609D59E
:103AB000194B1A491B6800220A7003B11A70104B87
:103AC0002C22DA7030BC704711790906EAD5144906
:103AD00010480C780178C9B28C420DD04A1C272AB4
:103AE00084BF00210A460F4D054C98BFD1B2AA5C95
:103AF000D2B2E2710170D5E76C21D170D2E700BF7C
:103B000000C00640589BFF1F599BFF1F849BFF1F4F
:103B1000549BFF1FC59BFF1FC89BFF1FC49BFF1F1C
:103B2000CC9BFF1F5C9BFF1F431E032B14D872B658
:103B30000A4951F8230068B170B4094C058834F87B
:103B40001320466841F82360521B24F8132062B604
:103B500070BC704762B6704700207047289CFF1FFA
:103B6000249DFF1F013803280BD872B6074B53F86A
:103B7000203043B100205B680130002BFBD162B6DE
:103B80007047002070471846F9E700BF7C9CFF1F74
:103B9000F0B472B61A491B4E012311F8014B194FAC
:103BA0009A00240742F0010505D556F8324064B169
:103BB00056F83520BAB10133052BEED162B6124B5F
:103BC00000221A70F0BC00F00FBD0F4C0F4D217891
:103BD00047F8325007EB431308304A1E58602270F2
:103BE00062B6F0BC70470849094B0A7847F835308F
:103BF00007EBC5030830013A58600A7062B6F0E777
:103C0000D8A400000080FF1FA59CFF1F8800400073
:103C1000C8004000431E032B1DD81B4A400140F042
:103C2000100030B4104472B6184CE25C032A1BD862
:103C3000DFE802F00212151703220D88E25410F09B
:103C4000080F14BFC823882343EA054308310360E3
:103C5000416062B630BC704708300222EDE70522B1
:103C6000EBE708300422E8E7094A52F8230038B1AC
:103C7000084A52F82300416042F8231062B6E9E78F
:103C800042F82310034AF7E70080FF1FB49CFF1F90
:103C90007C9CFF1F8C9CFF1F2DE9F04FDFF804A3D5
:103CA000DFF804B387B044E0A94F4FEA930807EB6D
:103CB000C809013ED9F8042003F00803F6B2A2F1C6
:103CC000080003F0FF04002B40F0FE8057F8383066
:103CD0001B0C99B222F8081C002B00F0EC809D4BC5
:103CE00022F8064C42F8044C53F82620002A00F033
:103CF0002B82994D55F826305860984C45F826008F
:103D000034F81630194424F8161000F04DFC002841
:103D100000F01382924A934B19F0080F00F108004B
:103D200018BF1346C9F8040047F8383008238AF84A
:103D300000309AF80040E4B260071AD58A4B1B782D
:103D4000A3B18A490A7802F0FF0322B1013BDBB23A
:103D50000B7003B900BE86490A7802F0FF032AB14E
:103D6000013BDBB20B70002B00F0BD8104238AF80D
:103D7000003004F0080303F0FF02002B00F0C880BD
:103D80009BF80030DBB21E098ED19C08704F57F8AB
:103D9000342007EBC401C2F38302013A49680C2ABC
:103DA00000F28580DFE802F079798383838383835F
:103DB00042838383070008686E4B6F4D0193684B05
:103DC0004A686E4E47F8343081B240F28164694BE4
:103DD0006A60286000220120A1421A603A61BA613B
:103DE000307000F2E380B1F5D06F80F02782B1F53A
:103DF000817F00F0E08100F2C381802900F03682EB
:103E0000822940F0DE81A9885D4B01F07F01042901
:103E100000F2D8815B4C89000B44227062701A78E2
:103E2000930740F122832070022023E2514B01933B
:103E30001A683AB3544B514E5449188834780D7867
:103E40004028864645F0020828BF4FF0400E002C5F
:103E500084F001043470CEEB00000CBF8824C82429
:103E600007EBC80680B285F0010544EA0E44726093
:103E7000188047F8384072440D70002800F0B78071
:103E8000019B1A603C4B1A88B2F5A06F0FD100213C
:103E90009A7859703E4B1A7009E0374A108842F2FE
:103EA0002102904200F0A8802D4A47F83420394A78
:103EB000012313703AE72A4A2A4B19F0080F18BF5A
:103EC000134647F8383031E700F08EFB324A334969
:103ED00052F82630002B00F03B8158688C5D42F888
:103EE000260003F10802C9F80420032C05D8DFE8F6
:103EF00004F02C02292602228A551A8819F0080F8C
:103F00000CBF8823C82343EA024347F838300DE743
:103F1000E00700F1EB80210600F12881A20706D519
:103F20001F4A204913780220DBB213700870E306A1
:103F300002D51C4B10221A7007B0BDE8F08F042286
:103F40008A55DAE705228A55D7E703228A55D4E74E
:103F50000080FF1F289CFF1FD49BFF1F249DFF1F75
:103F6000C800400088004000B09CFF1F399CFF1F24
:103F7000B89CFF1FD09BFF1F9C9CFF1F389CFF1FFE
:103F8000C0200740A89CFF1FE49BFF1FA49CFF1FAD
:103F900098200740942007407C9CFF1FB49CFF1F83
:103FA00088200740802007409020074042F22104EB
:103FB000A14200F0948043D8B1F5086F00F0A881C9
:103FC000B1F5106F40F0FD80B84AB94CA978117076
:103FD00004F1800503E00834AC4200F09E81236ABE
:103FE0001906F8D5606A083800F0FEFAF3E7BEF16A
:103FF000400F18BF002243E7AE4ACD1D11F8013B28
:1040000002F8013FA942F9D1AB4A1268862A00F0B2
:104010001181AA49AA4E0A78307882F00105002859
:1040200042F002020D700CBF8821C82147F83210FF
:1040300007EBC20280F0010000213070516033E7CD
:1040400042F22124A14240F0FE81DFF8BCC29D4B28
:104050009D49AC78DCF800501D6081460C70002052
:10406000029080468446044694490D7845F0020E3D
:1040700007EBCE03B9F1000F5C600CBF8824C824A5
:1040800044EA080385F0010447F83E3032700C70B2
:10409000DFF81CE28A4BDFF82482002840F0988089
:1040A000BCF1400F1BD144F0020407EBC403029F94
:1040B000DFF8FCE15F60002A40F09F80020442F0DC
:1040C000880207444EF8342086F800900D703B4675
:1040D000402804D100207D4A019910800B607C4A61
:1040E00001231370E3E600F0EBFB3FE6704B7848EA
:1040F00072491A614FF0020E80F800E0754F0A70A5
:10410000754919609960754E754D764C9A610D210F
:104110003970FF213170DFF8F4E129702270724D9F
:10412000724A8EF800109F27012406F8047C5D6017
:104130000470DA6007B0BDE8F08F6D4A47F83800C8
:10414000137801331370F1E543F82600694DD4E587
:104150008B5D032B67D801A252F823F02D3D0000A0
:104160002D3D0000B1410000AB41000059495C4BBE
:1041700080220D2008701A70A2077FF5D8AECFE616
:1041800040F20232914240F05681A98801F07F014D
:10419000042916D86A88A2B94E4C89000C4481467D
:1041A000217841F00201217059E701238B55BDE5CB
:1041B00000238B55BAE5A98801F07F01042940F25C
:1041C0004781444B0F221A70414A012313706EE657
:1041D00040287FF668AF44F002040EEBC401029E53
:1041E0004E60AAB1444A83F800903346403888F8BC
:1041F000005040334EF834206DE70204029B86F8ED
:10420000009042F0C8020D7003444EF834205FE77E
:1042100083F80090029B304A88F8005040384033C1
:104220004EF8342057E719F0080F0CBF0223032380
:104230008B557BE5314A0F211170EAE6304A54680C
:10424000002CBED06888B5F804E003E00C32546856
:10425000002CB6D013888342F8D153887345F5D12A
:10426000000A03280CBF2078108903E0254C0220A7
:1042700022706270EA88824280F00C810F490D78CA
:10428000402A45F0020E944607EBCE0028BF4FF0BF
:10429000400C04EB0C0344600293CCEB02004FEAA9
:1042A0000C484FF001090022C824E9E6B09CFF1F2A
:1042B0000080FF1F2B9DFF1F2C9DFF1FA49CFF1F35
:1042C000389CFF1F349DFF1FC89CFF1FE49BFF1FEE
:1042D00094200740C0200740880040008820074005
:1042E0008020074098200740E89BFF1F3C9CFF1F51
:1042F000A59CFF1FD49BFF1FC8004000399CFF1FD7
:10430000DCA40000A89CFF1F409AFF1F8C200740E0
:10431000684A694C12782270ACE76849684B694A70
:1043200002916949694C6A4D039405964FF0000962
:1043300088461C4616460495206828B1456800F05A
:1043400053F92846002DF9D100232360049B3068DF
:104350001A46002342F8293028B1456800F044F994
:104360002846002DF9D100223260029A98F80030D8
:104370001146002241F8042B039A0291023B4FF0B0
:10438000000122F81910032B07D8DFE803F03402EC
:1043900034024FF0010388F8003009F10109B9F146
:1043A000040F04F1040406F1040608F10108C3D166
:1043B000484B059EDFF83091DFF8308100211970FD
:1043C000012518F8013B09F8043B1A0718D4AC0082
:1043D00044F0020244F00304002347F8323047F867
:1043E00034303D4B994505F10105EAD196F800902E
:1043F00089F0010233E64FF0000388F80030CCE783
:1044000000F0D2F8AC0007EB451300F108020028D9
:1044100037D05A60314B47F8343000F0C5F844F0DB
:10442000010307EBC30200F1080100B351602C4AFD
:1044300047F83320CCE7B1F5A06F7FF4C2AE00227D
:104440004FF001090BE642F221329142F7D0B8E673
:104450006A88002A7FF4B5AE224C89000C4481465C
:10446000217821F002012170F9E5022002E7194BC1
:1044700044F001021B7847F83200164A01331370EA
:10448000A6E7144B134A1B78AC00013347F83400FD
:104490001370C2E74028844628BF4FF0400C04EB5D
:1044A0000C03CCEB00004FEA0C48029300224FF0C3
:1044B0000109D9E5B09CFF1FA89CFF1F8C9CFF1F22
:1044C000289CFF1F7C9CFF1FB49CFF1F249DFF1F87
:1044D000D49BFF1FA59CFF1FD420074088004000ED
:1044E000C8004000C0200740C4200740D8A40000F6
:1044F0002DE9F843204C00F089FC002204F18800EB
:1045000023461A605A60083383424FF00001F8D105
:104510001A4A1B4F13681B4D1B481C4EDFF878804E
:10452000DFF878C0DFF87890DFF878E043F4802394
:104530001360C4F307233B70C4F307432B70240EAE
:10454000FF2302F528320470114D88F8003011481D
:104550008CF80030D4323370012389F80030702693
:104560008EF800104FF40074102107F8183C2E70DC
:1045700004601170BDE8F8830080FF1F34800440A0
:104580009C200740B0200740B4200740102007407F
:1045900049E400E008E100E080200740882007406F
:1045A000942007400021074072B60D480268B2FA15
:1045B00082F30B2B10DC4FF00041D94022EA0102BC
:1045C000026062B6074803EBC303DB00C218002198
:1045D000C15010465160704762B60020704700BF5E
:1045E000E089FF1FBC83FF1F0D4B0E4AC31AA2FBBD
:1045F00003231B090B2B0CD80B4A127852B972B645
:104600000A484FF00041026821FA03F31A4302609E
:1046100062B67047064A1278002AF0D0FFF7B8BA9F
:10462000BC83FF1F398EE338A59CFF1FE089FF1F65
:10463000B09CFF1F38B50F4D286878B143880288B9
:10464000C118013393420C7A02D24380204638BD10
:10465000FFF7CAFF002320462B6038BD064B1B78AE
:104660002BB10320FFF760FA28600028E6D14FF055
:10467000FF3038BDC49CFF1FB09CFF1F10B5094C14
:10468000206818B143881844007A10BD064B1B7887
:104690002BB10320FFF748FA20600028F2D14FF039
:1046A000FF3010BDC49CFF1FB09CFF1F044B054A88
:1046B0001B6890881BB11A885B88D31A184470470E
:1046C000C49CFF1F249DFF1F0B4B1B789BB110B593
:1046D0000A4C206848B1FFF787FF002303202360BE
:1046E000FFF722FA30B1FFF77FFF0320FFF71CFA34
:1046F0000028F8D110BD7047B09CFF1FC49CFF1F5D
:104700002DE9F04FDFF8F89083B0012289F80020FE
:10471000019169B3DFF8EC80364F019E8346D8F8EB
:104720000000B0B3344D4488C4F14001B14228BF09
:10473000314604EB010E00221FFA8EFE2A70761A13
:10474000A0F802E000F1080251B1013C22445944B2
:104750001BF8014B02F8014F8B45F9D1B0F802E08C
:10476000BEF13F0F0BD8254A05211170002ED6D17E
:104770000198002389F8003003B0BDE8F08F402293
:10478000028001460420FFF745FA0022C8F8002005
:10479000E9E73A782AB3184D4AF2F9244FF0010AB2
:1047A00007E0013C16D02A78A2B900F0BBFA3A78AB
:1047B000BAB10420FFF7D6F90728F2D889F800A08B
:1047C000FFF7F2FEC8F800000028ACD10C4B013C0A
:1047D0001870E8D101234FF0FF302B7003B0BDE813
:1047E000F08F00234FF0FF3089F8003003B0BDE8B0
:1047F000F08F00BFB09CFF1FC09CFF1FB89CFF1F25
:10480000B99CFF1FBC9CFF1F00B583B002AB012108
:1048100003F8010D1846FFF773FF03B05DF804FBC2
:1048200038B50E4D0E4C28680123237028B14088FE
:1048300000232370C0F1400038BD0A4B1B7813B928
:104840000020207038BD0420FFF78CF90728F7D826
:10485000FFF7AAFE28600028E9D1F1E7BC9CFF1F02
:10486000B99CFF1FB09CFF1FF8B5114B1B788BB193
:10487000104E114D346801272F7064B10F4A6388C0
:1048800000271770214623800420FFF7C3F9376003
:1048900000232B70F8BDFFF787FE084B28B10146B7
:1048A00004201C70FFF7B6F9F2E71F70F0E700BFB5
:1048B000B09CFF1FBC9CFF1FB99CFF1FB89CFF1F33
:1048C00038B50E4B1B7873B90D4C216861B103F0FC
:1048D000FF054B880B800420FFF79CF9256038BD4D
:1048E000084B01221A7038BDFFF75EFE0028F7D092
:1048F0000146BDE838400420FFF78CB9B99CFF1F82
:10490000BC9CFF1FB89CFF1F704700BF704700BFD3
:10491000704700BF08B5FDF7B5F8FDF721F800F0C6
:1049200001FAFAE701F076B801F07CB82DE9F0431E
:104930008C688BB0ECB10025064689462F462B4685
:10494000212201A9484600F0D3F93268202C2346E1
:1049500028BF2023D2F8048001A91A4630461D44FE
:10496000E41AC0470744002CE9D138460BB0BDE833
:10497000F0832746F9E700BF00B5064A03681288AE
:104980005B6883B001A9ADF804200222984703B008
:104990005DF804FBACA4000010B5036814465B6826
:1049A0009847204610BD00BF0EB400B582B003AAE0
:1049B00052F8041B019202F06BF802B05DF804EBB0
:1049C00003B07047F0B507468BB0002A33D0012AF8
:1049D00008BF0A2251B3212400E0F4B2B1FBF2F582
:1049E00002FB1511C8B2092900F1300198BFC8B205
:1049F0000AA988BF3730214488BFC0B201F8240C0F
:104A0000661E2946002DE8D133B1013CE4B20AAB61
:104A100023442D2203F8242C3B6801AA11195B685A
:104A20003846C4F1220298470BB0F0BD30228DF811
:104A300025202124E8E70368C9B21B6898470BB01A
:104A4000F0BD00BF0029BABF49422D2300230A222E
:104A5000FFF7B8BFFFF738BEFFF706BFFFF7E0BEAE
:104A600008461146FFF74CBE0846FFF7CDBE00BF13
:104A7000704700BFF0B5164D2A680AB31549164BAA
:104A8000DFF85CE082FB016781FB0214D617D119C5
:104A90001444C6EB2141C6EB244403FB04F40EFB93
:104AA000112244F2A71303FB0243002B02DA03F1A5
:104AB0000043013BB3FBF0F22B6000FB1230F0BD72
:104AC000064B2B60B3FBF0F200FB1230F0BD00BFD1
:104AD000CC9CFF1F5F0B4E83ECF4FFFF42CE0C1FFC
:104AE0001DF3010008B1014B18607047CC9CFF1FFB
:104AF000884206DA10B50446081AFFF7BBFF2044C7
:104B000010BD704710B50446006800F08BFF2046CA
:104B100010BD00BF38B543688B4201D3012038BDBA
:104B20000D4604460131006801F008FB0028F6D06C
:104B3000A36884E82100002BF0D10370EEE700BFEA
:104B4000F8B50446154632B9036803B11A7000235C
:104B5000A3602046F8BD0E461146FFF7DBFF07466F
:104B600048B9206810B100F05DFF27600023636042
:104B7000A3602046F8BDA5603146206801F05EFEC6
:104B8000E7E700BF38B50023044603604360836055
:104B9000037341B108460D4601F0B2FE29460246B4
:104BA0002046FFF7CDFF204638BD00BF00238842D6
:104BB00010B50446036043608360037303D08A68C2
:104BC0000968FFF7BDFF204610BD00BF38B5054698
:104BD00008460C4601F094FE214602462846BDE8F0
:104BE0003840FFF7ADBF00BF814203D08A68096833
:104BF000FFF7A6BF704700BF10B5044619B1FFF715
:104C0000E5FF204610BDA160204610BD2DE9F84308
:104C100003680F46BB420446816815460AD85A18F5
:104C2000974207D2C3EB07094FF0010835B9204678
:104C3000BDE8F8834FF00008002DF8D04E1931463A
:104C40002046FFF767FF0028F1D0B8F1000F0ED023
:104C50002368A0682A4603EB09011844FEF724F9EB
:104C6000236800229A55A6602046BDE8F883206894
:104C7000A3683946184401F0E1FDF4E78A68096841
:104C8000FFF7C4BF10B582B000238DF804100122D5
:104C900001A904468DF80530FFF7B8FF204602B0A1
:104CA00010BD00BF10B582B000238DF804100122A2
:104CB00001A904468DF80530FFF7A8FF204602B091
:104CC00010BD00BF826808B50B462AB971B11878CB
:104CD000B0FA80F0400908BD31B1006801F044FC31
:104CE000B0FA80F0400908BD0368F0E7012008BD74
:104CF000B2B1A9B138B584689C420ED9E41A013A20
:104D00000D469442016828BF14461944224628469D
:104D100001F064FE00232B5538BD00230B7038BD15
:104D2000704700BF38B5224C237803B138BD01234A
:104D30002370FFF7BBFC70BBFEF74EFD40BBFEF7D8
:104D4000E1FD10BBFEF774FEE0B900232370EFF322
:104D50000583002BEAD1EFF3108172B6154B18686A
:104D6000E0B1154C2278CAB945691D600123237052
:104D7000C5B1AA6101B962B6002545778368984735
:104D80002570D3E7FFF7C4FDDFE7FFF7BFFDD9E7E5
:104D9000FFF7BAFDD3E7FFF76BFECDE70029C5D1DA
:104DA00062B638BD054B1D600029E5D1E3E700BFC1
:104DB000D09CFF1FE49CFF1FE89CFF1FE09CFF1F8F
:104DC000F0B44D1E2E46002400E00134B0FBF2F397
:104DD00002FB1300092800F130078ABF3730F8B210
:104DE000C0B206F8010F1846002BEED10A19537015
:104DF0004CB1107815F8016F28700133E01A834226
:104E000002F80169F5DB0846F0BC704770B584B064
:104E100072B6194B194D1A48702241260F24802171
:104E20001A702E701A460470197013781B06FCD580
:104E3000144B186862B6144B144C984298BF00EBA0
:104E4000800001A998BF40000A22FFF7B9FF01A91D
:104E50002046002311F8012B01333AB10A2B20F828
:104E6000022FF7D11623237004B070BD5B00DBB2B4
:104E7000237004B070BD00BF000002400700024074
:104E800006000240080002407F969800808AFF1FBB
:104E900010B4EFF3108272B6437F33B9017F01295A
:104EA00007D003290FD00123437702B962B610BCA3
:104EB0007047124C2168A1B1114943610B688361AD
:104EC00008605861EFE70F4C216881B10E494361DA
:104ED0000B688361086058610C4B4FF0805119607A
:104EE000E1E7074B4161816120601860DBE7064B19
:104EF0004161816120601860EEE700BFE49CFF1F04
:104F0000E09CFF1FD49CFF1FD89CFF1F04ED00E016
:104F100010B4047F4160022CC26002D010BCFFF7C5
:104F2000B7BF836810BC184770B5EFF3108272B634
:104F30000C4C206880B10C4E00254369236073B18E
:104F40009D6102B962B6457783689847EFF3108296
:104F500072B620680028F0D102B962B670BD336025
:104F6000EFE700BFD49CFF1FD89CFF1FFFF7DCBFFB
:104F7000184A30B41468002C27D0036821688B428B
:104F80000ED2CB1A00218460C1602360E060106003
:104F90000223037530BC704711688B42144608D356
:104FA000A2685B1A0360002AF6D18260C460A06028
:104FB000EEE7D268C2608460E060C568CB1A022266
:104FC000A8602360027530BC70478460C4601060C4
:104FD000DEE700BFDC9CFF1FF8B5224E34682CB31F
:104FE0002368002B3AD1204F1D4604E03468ECB111
:104FF0002368002B32D1A36803B1DD6020693360E0
:10500000036825751B68BB4221D1037F4560022BD5
:10501000C46020D0FFF73CFF6368002BE6D023601C
:105020002046FFF7A5FF3468002CE1D1EFF3108391
:1050300072B60E4A00211068116003B962B628B139
:105040008468FFF795FF20460028F9D1F8BD224675
:1050500000219847E0E783689847DDE7013B23603C
:10506000E4E700BFDC9CFF1F114F0000EC9CFF1F1A
:10507000024A136801331360FFF7AEBF409AFF1F67
:1050800081F0004102E000BF83F0004330B54FEAF9
:1050900041044FEA430594EA050F08BF90EA020F66
:1050A0001FBF54EA000C55EA020C7FEA645C7FEAF9
:1050B000655C00F0E2804FEA5454D4EB5555B8BF1C
:1050C0006D420CDD2C4480EA020281EA030382EA8D
:1050D000000083EA010180EA020281EA0303362D1F
:1050E00088BF30BD11F0004F4FEA01314FF4801CF2
:1050F0004CEA113102D0404261EB410113F0004F04
:105100004FEA03334CEA133302D0524263EB4303BA
:1051100094EA050F00F0A780A4F10104D5F1200E58
:105120000DDB02FA0EFC22FA05F2801841F10001B3
:1051300003FA0EF2801843FA05F359410EE0A5F187
:1051400020050EF1200E012A03FA0EFC28BF4CF0B8
:10515000020C43FA05F3C01851EBE37101F000456E
:1051600007D54FF0000EDCF1000C7EEB00006EEB7B
:105170000101B1F5801F1BD3B1F5001F0CD3490805
:105180005FEA30004FEA3C0C04F101044FEA44525C
:1051900012F5800F80F09A80BCF1004F08BF5FEAE3
:1051A000500C50F1000041EB045141EA050130BDC3
:1051B0005FEA4C0C404141EB010111F4801FA4F166
:1051C0000104E9D191F0000F04BF01460020B1FABB
:1051D00081F308BF2033A3F10B03B3F120020CDAF3
:1051E0000C3208DD02F1140CC2F10C0201FA0CF0D1
:1051F00021FA02F10CE002F11402D8BFC2F1200C36
:1052000001FA02F120FA0CFCDCBF41EA0C019040EB
:10521000E41AA2BF01EB0451294330BD6FEA040434
:105220001F3C1CDA0C340EDC04F11404C4F120021F
:1052300020FA04F001FA02F340EA030021FA04F331
:1052400045EA030130BDC4F10C04C4F1200220FA88
:1052500002F001FA04F340EA0300294630BD21FAC6
:1052600004F0294630BD94F0000F83F4801306BF8C
:1052700081F480110134013D4EE77FEA645C18BF80
:105280007FEA655C29D094EA050F08BF90EA020F17
:1052900005D054EA000C04BF1946104630BD91EA0F
:1052A000030F1EBF0021002030BD5FEA545C05D112
:1052B0004000494128BF41F0004130BD14F5800451
:1052C0003CBF01F5801130BD01F0004545F0FE41C5
:1052D00041F470014FF0000030BD7FEA645C1ABFFA
:1052E000194610467FEA655C1CBF0B46024650EA31
:1052F000013406BF52EA033591EA030F41F400215D
:1053000030BD00BF90F0000F04BF0021704730B5E2
:105310004FF4806404F132044FF000054FF00001B7
:1053200050E700BF90F0000F04BF0021704730B578
:105330004FF4806404F1320410F0004548BF40424D
:105340004FF000013EE700BF42004FEAE2014FEAA2
:1053500031014FEA02701FBF12F07F4393F07F4F7D
:1053600081F06051704792F0000F14BF93F07F4FAF
:10537000704730B54FF4607401F0004521F00041F2
:1053800020E700BF50EA010208BF704730B54FF078
:1053900000050AE050EA010208BF704730B511F07D
:1053A000004502D5404261EB41014FF4806404F1B5
:1053B00032045FEA915C3FF4DCAE4FF003025FEA37
:1053C000DC0C18BF03325FEADC0C18BF033202EBBF
:1053D000DC02C2F1200300FA03FC20FA02F001FA19
:1053E00003FE40EA0E0021FA02F11444C1E600BFB8
:1053F00070B54FF0FF0C4CF4E06C1CEA11541DBF6B
:105400001CEA135594EA0C0F95EA0C0F00F0DEF835
:105410002C4481EA030621EA4C5123EA4C5350EA1A
:10542000013518BF52EA033541F4801143F480136B
:1054300038D0A0FB02CE4FF00005E1FB02E506F0FC
:105440000042E0FB03E54FF00006E1FB03569CF051
:10545000000F18BF4EF0010EA4F1FF04B6F5007F57
:1054600064F5407404D25FEA4E0E6D4146EB0606C9
:1054700042EAC62141EA55514FEAC52040EA5E5052
:105480004FEACE2EB4F1FD0C88BFBCF5E06F1ED8FC
:10549000BEF1004F08BF5FEA500E50F1000041EB33
:1054A000045170BD06F0004646EA010140EA0200E0
:1054B00081EA0301B4EB5C04C2BFD4EB0C0541EA02
:1054C000045170BD41F480114FF0000E013C00F317
:1054D000AB8014F1360FDEBF002001F0004170BD3B
:1054E000C4F10004203C35DA0C341BDC04F1140454
:1054F000C4F1200500FA05F320FA04F001FA05F2E0
:1055000040EA020001F0004221F0004110EBD370AC
:1055100021FA04F642EB06015EEA430E08BF20EAD8
:10552000D37070BDC4F10C04C4F1200500FA04F37B
:1055300020FA05F001FA04F240EA020001F000410D
:1055400010EBD37041F100015EEA430E08BF20EA80
:10555000D37070BDC4F1200500FA05F24EEA020EC8
:1055600020FA04F301FA05F243EA020321FA04F0F7
:1055700001F0004121FA04F220EA020000EBD370AE
:105580005EEA430E08BF20EAD37070BD94F0000FAE
:105590000FD101F00046400041EB010111F4801FE2
:1055A00008BF013CF7D041EA060195F0000F18BF93
:1055B000704703F00046520043EB030313F4801FCF
:1055C00008BF013DF7D043EA0603704794EA0C0F89
:1055D0000CEA135518BF95EA0C0F0CD050EA41069F
:1055E00018BF52EA4306D1D181EA030101F000411C
:1055F0004FF0000070BD50EA410606BF1046194644
:1056000052EA430619D094EA0C0F02D150EA01364F
:1056100013D195EA0C0F05D152EA03361CBF104690
:1056200019460AD181EA030101F0004141F0FE412F
:1056300041F470014FF0000070BD41F0FE4141F4B3
:10564000780170BD70B54FF0FF0C4CF4E06C1CEAB3
:1056500011541DBF1CEA135594EA0C0F95EA0C0F68
:1056600000F0A7F8A4EB050481EA030E52EA033523
:105670004FEA013100F088804FEA03334FF0805544
:1056800045EA131343EA12634FEA022245EA111571
:1056900045EA10654FEA00260EF000419D4208BF22
:1056A000964244F1FD0404F5407402D25B084FEACF
:1056B0003202B61A65EB03055B084FEA32024FF47B
:1056C00080104FF4002CB6EB020E75EB030E22BFD8
:1056D000B61A754640EA0C005B084FEA3202B6EB98
:1056E000020E75EB030E22BFB61A754640EA5C0047
:1056F0005B084FEA3202B6EB020E75EB030E22BFD7
:10570000B61A754640EA9C005B084FEA3202B6EBD7
:10571000020E75EB030E22BFB61A754640EADC0096
:1057200055EA060E18D04FEA051545EA16754FEAF8
:1057300006164FEAC30343EA52734FEAC2025FEA16
:105740001C1CC0D111F4801F0BD141EA00014FF0A5
:1057500000004FF0004CB6E711F4801F04BF014376
:105760000020B4F1FD0C88BFBCF5E06F3FF6AFAE92
:10577000B5EB030C04BFB6EB020C5FEA500C50F122
:10578000000041EB045170BD0EF0004E4EEA1131A5
:1057900014EB5C04C2BFD4EB0C0541EA045170BDAC
:1057A00041F480114FF0000E013C90E645EA060EF0
:1057B0008DE60CEA135594EA0C0F08BF95EA0C0F1E
:1057C0003FF43BAF94EA0C0F0AD150EA01347FF466
:1057D00034AF95EA0C0F7FF425AF104619462CE73D
:1057E00095EA0C0F06D152EA03353FF4FDAE1046A0
:1057F000194622E750EA410618BF52EA43067FF4F1
:10580000C5AE50EA41047FF40DAF52EA43057FF480
:10581000EBAE12E74FF0FF3C06E000BF4FF0010C8B
:1058200002E000BF4FF0010C4DF804CD4FEA410CEF
:105830007FEA6C5C4FEA430C18BF7FEA6C5C1BD0BC
:1058400001B050EA410C0CBF52EA430C91EA030F3D
:1058500002BF90EA020F0020704710F1000F91EA9A
:10586000030F58BF994208BF90422CBFD8176FEA68
:10587000E37040F0010070474FEA410C7FEA6C5C36
:1058800002D150EA013C07D14FEA430C7FEA6C5C3D
:10589000D6D152EA033CD3D05DF8040B704700BF69
:1058A0008446104662468C461946634600E000BFB7
:1058B00001B5FFF7B7FF002848BF10F1000F01BD89
:1058C0004DF808EDFFF7F4FF0CBF012000205DF854
:1058D00008FB00BF4DF808EDFFF7EAFF34BF0120D9
:1058E00000205DF808FB00BF4DF808EDFFF7E0FF72
:1058F00094BF012000205DF808FB00BF4DF808EDC3
:10590000FFF7CEFF94BF012000205DF808FB00BF29
:105910004DF808EDFFF7C4FF34BF012000205DF80B
:1059200008FB00BF4FEA410C7FEA6C5C02D150EAF1
:10593000013C0AD14FEA430C7FEA6C5C02D152EA87
:10594000033C02D14FF0000070474FF00100704758
:105950004FEA410212F5001215D211D56FF4787397
:10596000B3EB625212D94FEAC12343F0004343EA3A
:10597000505311F0004F23FA02F018BF4042704715
:105980004FF00000704750EA013005D111F000409F
:1059900008BF6FF0004070474FF00000704700BF35
:1059A0000B460146184600F001B800BF13460A46F0
:1059B0000146022001F09CB8014B1868704700BFF7
:1059C000C08EFF1F70B50F4E0F4D761BB61018BF5F
:1059D000002405D0013455F8043B9847A642F9D17C
:1059E0000A4E0B4D761B04F0E9FEB61018BF0024DA
:1059F00006D0013455F8043B9847A642F9D170BD52
:105A000070BD00BFC8A70000C8A70000E0A7000045
:105A1000C8A70000024B0146186800F00BB800BF91
:105A2000C08EFF1F024B0146186801F01FB900BF6E
:105A3000C08EFF1F2DE9F04F01F10B05162D83B02D
:105A4000064640F29F8035F0070500F1BF80A9426D
:105A500000F2BC8000F06EFBB5F5FC7FC0F09C82CC
:105A60006B0A00F0BA80042B00F28381A80900F1D0
:105A7000390E4FEA4E033830C44F07EB8303A3F1CE
:105A800008015C68A14207D1ACE0002A80F2AC803A
:105A9000E468A14200F0A680636823F003035A1B68
:105AA0000F2AF2DDB9493C6901F1080E744500F096
:105AB000B381636823F003035A1B0F2A00F3998113
:105AC000002AC1F814E0C1F810E080F29E80B3F51E
:105AD000007F80F06781DB0803F1010C01229B103D
